{"abi":[{"type":"constructor","inputs":[],"stateMutability":"nonpayable"},{"type":"fallback","stateMutability":"payable"},{"type":"receive","stateMutability":"payable"},{"type":"function","name":"I_OWNER","inputs":[],"outputs":[{"name":"","type":"address","internalType":"address"}],"stateMutability":"view"},{"type":"function","name":"MINIMUM_AMOUNT_SENT","inputs":[],"outputs":[{"name":"","type":"uint256","internalType":"uint256"}],"stateMutability":"view"},{"type":"function","name":"amountSentByAddress","inputs":[{"name":"sender","type":"address","internalType":"address"}],"outputs":[{"name":"amountSent","type":"uint256","internalType":"uint256"}],"stateMutability":"view"},{"type":"function","name":"sendMoney","inputs":[],"outputs":[],"stateMutability":"payable"},{"type":"function","name":"withdraw","inputs":[],"outputs":[],"stateMutability":"nonpayable"},{"type":"error","name":"NotTheOwner","inputs":[]}],"bytecode":{"object":"0x60a0604052348015600e575f5ffd5b503373ffffffffffffffffffffffffffffffffffffffff1660808173ffffffffffffffffffffffffffffffffffffffff16815250506080516109486100625f395f81816102d1015261051401526109485ff3fe60806040526004361061004d575f3560e01c80632007492e146100665780633ccfd60b146100905780634a241eb1146100a657806378dff77b146100e2578063cbedbf5a1461010c5761005c565b3661005c5761005a610116565b005b610064610116565b005b348015610071575f5ffd5b5061007a6102c3565b60405161008791906105f0565b60405180910390f35b34801561009b575f5ffd5b506100a46102cf565b005b3480156100b1575f5ffd5b506100cc60048036038101906100c79190610667565b6104fd565b6040516100d991906105f0565b60405180910390f35b3480156100ed575f5ffd5b506100f6610512565b60405161010391906106a1565b60405180910390f35b610114610116565b005b678ac7230489e800003473__$c833f10cbc17c74a4e8d4419eabd7d3b82$__63c086381e90916040518263ffffffff1660e01b815260040161015891906106c9565b602060405180830381865af4158015610173573d5f5f3e3d5ffd5b505050506040513d601f19601f82011682018060405250810190610197919061070c565b10156101d8576040517f08c379a00000000000000000000000000000000000000000000000000000000081526004016101cf90610791565b60405180910390fd5b5f33908060018154018082558091505060019003905f5260205f20015f9091909190916101000a81548173ffffffffffffffffffffffffffffffffffffffff021916908373ffffffffffffffffffffffffffffffffffffffff1602179055503460015f3373ffffffffffffffffffffffffffffffffffffffff1673ffffffffffffffffffffffffffffffffffffffff1681526020019081526020015f205461028091906107dc565b60015f3373ffffffffffffffffffffffffffffffffffffffff1673ffffffffffffffffffffffffffffffffffffffff1681526020019081526020015f2081905550565b678ac7230489e8000081565b7f000000000000000000000000000000000000000000000000000000000000000073ffffffffffffffffffffffffffffffffffffffff163373ffffffffffffffffffffffffffffffffffffffff1614610354576040517f36b6b89500000000000000000000000000000000000000000000000000000000815260040160405180910390fd5b5f5f90505b5f805490508110156103f3575f5f82815481106103795761037861080f565b5b905f5260205f20015f9054906101000a900473ffffffffffffffffffffffffffffffffffffffff1690505f60015f8373ffffffffffffffffffffffffffffffffffffffff1673ffffffffffffffffffffffffffffffffffffffff1681526020019081526020015f2081905550508080600101915050610359565b505f67ffffffffffffffff81111561040e5761040d61083c565b5b60405190808252806020026020018201604052801561043c5781602001602082028036833780820191505090505b505f9080519060200190610451929190610536565b505f3373ffffffffffffffffffffffffffffffffffffffff164760405161047790610896565b5f6040518083038185875af1925050503d805f81146104b1576040519150601f19603f3d011682016040523d82523d5f602084013e6104b6565b606091505b50509050806104fa576040517f08c379a00000000000000000000000000000000000000000000000000000000081526004016104f1906108f4565b60405180910390fd5b50565b6001602052805f5260405f205f915090505481565b7f000000000000000000000000000000000000000000000000000000000000000081565b828054828255905f5260205f209081019282156105ac579160200282015b828111156105ab578251825f6101000a81548173ffffffffffffffffffffffffffffffffffffffff021916908373ffffffffffffffffffffffffffffffffffffffff16021790555091602001919060010190610554565b5b5090506105b991906105bd565b5090565b5b808211156105d4575f815f9055506001016105be565b5090565b5f819050919050565b6105ea816105d8565b82525050565b5f6020820190506106035f8301846105e1565b92915050565b5f5ffd5b5f73ffffffffffffffffffffffffffffffffffffffff82169050919050565b5f6106368261060d565b9050919050565b6106468161062c565b8114610650575f5ffd5b50565b5f813590506106618161063d565b92915050565b5f6020828403121561067c5761067b610609565b5b5f61068984828501610653565b91505092915050565b61069b8161062c565b82525050565b5f6020820190506106b45f830184610692565b92915050565b6106c3816105d8565b82525050565b5f6020820190506106dc5f8301846106ba565b92915050565b6106eb816105d8565b81146106f5575f5ffd5b50565b5f81519050610706816106e2565b92915050565b5f6020828403121561072157610720610609565b5b5f61072e848285016106f8565b91505092915050565b5f82825260208201905092915050565b7f446964206e6f742073656e6420656e6f756768206d6f6e6579000000000000005f82015250565b5f61077b601983610737565b915061078682610747565b602082019050919050565b5f6020820190508181035f8301526107a88161076f565b9050919050565b7f4e487b71000000000000000000000000000000000000000000000000000000005f52601160045260245ffd5b5f6107e6826105d8565b91506107f1836105d8565b9250828201905080821115610809576108086107af565b5b92915050565b7f4e487b71000000000000000000000000000000000000000000000000000000005f52603260045260245ffd5b7f4e487b71000000000000000000000000000000000000000000000000000000005f52604160045260245ffd5b5f81905092915050565b50565b5f6108815f83610869565b915061088c82610873565b5f82019050919050565b5f6108a082610876565b9150819050919050565b7f43616c6c206661696c65640000000000000000000000000000000000000000005f82015250565b5f6108de600b83610737565b91506108e9826108aa565b602082019050919050565b5f6020820190508181035f83015261090b816108d2565b905091905056fea26469706673582212205f0c69afabac54af6f61e458442600272986d856a03d77095f9166bb72f52a7264736f6c634300081b0033","linkReferences":{"src/ETHtoUSDConverter.sol":{"ETHtoUSDConverter":[{"start":388,"length":20}]}}},"methodIdentifiers":{"I_OWNER()":"78dff77b","MINIMUM_AMOUNT_SENT()":"2007492e","amountSentByAddress(address)":"4a241eb1","sendMoney()":"cbedbf5a","withdraw()":"3ccfd60b"},"id":2}