{"abi":[{"type":"function","name":"convertEthToUsd","inputs":[{"name":"amountOfEth","type":"uint256","internalType":"uint256"}],"outputs":[{"name":"","type":"uint256","internalType":"uint256"}],"stateMutability":"view"},{"type":"function","name":"priceOfOneEthInUsd","inputs":[],"outputs":[{"name":"","type":"uint256","internalType":"uint256"}],"stateMutability":"view"}],"bytecode":{"object":"0x61046c61004d600b8282823980515f1a6073146041577f4e487b71000000000000000000000000000000000000000000000000000000005f525f60045260245ffd5b305f52607381538281f3fe730000000000000000000000000000000000000000301460806040526004361061003f575f3560e01c8063735e112b14610043578063c086381e14610061575b5f5ffd5b61004b610091565b6040516100589190610186565b60405180910390f35b61007b600480360381019061007691906101cd565b610136565b6040516100889190610186565b60405180910390f35b5f5f73694aa1769357215de4fac081bf1f309adc32530690505f8173ffffffffffffffffffffffffffffffffffffffff1663feaf968c6040518163ffffffff1660e01b815260040160a060405180830381865afa1580156100f4573d5f5f3e3d5ffd5b505050506040513d601f19601f82011682018060405250810190610118919061027e565b5050509150506402540be4008161012f9190610322565b9250505090565b5f5f610140610091565b90505f670de0b6b3a764000084836101589190610398565b6101629190610406565b90508092505050919050565b5f819050919050565b6101808161016e565b82525050565b5f6020820190506101995f830184610177565b92915050565b5f5ffd5b6101ac8161016e565b81146101b6575f5ffd5b50565b5f813590506101c7816101a3565b92915050565b5f602082840312156101e2576101e161019f565b5b5f6101ef848285016101b9565b91505092915050565b5f69ffffffffffffffffffff82169050919050565b610216816101f8565b8114610220575f5ffd5b50565b5f815190506102318161020d565b92915050565b5f819050919050565b61024981610237565b8114610253575f5ffd5b50565b5f8151905061026481610240565b92915050565b5f81519050610278816101a3565b92915050565b5f5f5f5f5f60a086880312156102975761029661019f565b5b5f6102a488828901610223565b95505060206102b588828901610256565b94505060406102c68882890161026a565b93505060606102d78882890161026a565b92505060806102e888828901610223565b9150509295509295909350565b7f4e487b71000000000000000000000000000000000000000000000000000000005f52601160045260245ffd5b5f61032c82610237565b915061033783610237565b925082820261034581610237565b91507f800000000000000000000000000000000000000000000000000000000000000084145f8412161561037c5761037b6102f5565b5b8282058414831517610391576103906102f5565b5b5092915050565b5f6103a28261016e565b91506103ad8361016e565b92508282026103bb8161016e565b915082820484148315176103d2576103d16102f5565b5b5092915050565b7f4e487b71000000000000000000000000000000000000000000000000000000005f52601260045260245ffd5b5f6104108261016e565b915061041b8361016e565b92508261042b5761042a6103d9565b5b82820490509291505056fea2646970667358221220f45385c0eea6b3b139ffe672c930ca03dcb722b1d18fe7248f8ded886ae8813264736f6c634300081b0033","linkReferences":{}},"methodIdentifiers":{"convertEthToUsd(uint256)":"c086381e","priceOfOneEthInUsd()":"735e112b"},"id":1}